{
  "contractName": "TestRaffle",
  "abi": [
    {
      "inputs": [
        {
          "internalType": "string",
          "name": "baseURI",
          "type": "string"
        }
      ],
      "stateMutability": "nonpayable",
      "type": "constructor"
    },
    {
      "anonymous": false,
      "inputs": [
        {
          "indexed": true,
          "internalType": "address",
          "name": "owner",
          "type": "address"
        },
        {
          "indexed": true,
          "internalType": "address",
          "name": "approved",
          "type": "address"
        },
        {
          "indexed": true,
          "internalType": "uint256",
          "name": "tokenId",
          "type": "uint256"
        }
      ],
      "name": "Approval",
      "type": "event"
    },
    {
      "anonymous": false,
      "inputs": [
        {
          "indexed": true,
          "internalType": "address",
          "name": "owner",
          "type": "address"
        },
        {
          "indexed": true,
          "internalType": "address",
          "name": "operator",
          "type": "address"
        },
        {
          "indexed": false,
          "internalType": "bool",
          "name": "approved",
          "type": "bool"
        }
      ],
      "name": "ApprovalForAll",
      "type": "event"
    },
    {
      "anonymous": false,
      "inputs": [
        {
          "indexed": false,
          "internalType": "uint256",
          "name": "tokenId",
          "type": "uint256"
        },
        {
          "indexed": false,
          "internalType": "address",
          "name": "sender",
          "type": "address"
        }
      ],
      "name": "AssetMinted",
      "type": "event"
    },
    {
      "anonymous": false,
      "inputs": [
        {
          "indexed": true,
          "internalType": "address",
          "name": "previousOwner",
          "type": "address"
        },
        {
          "indexed": true,
          "internalType": "address",
          "name": "newOwner",
          "type": "address"
        }
      ],
      "name": "OwnershipTransferred",
      "type": "event"
    },
    {
      "anonymous": false,
      "inputs": [
        {
          "indexed": false,
          "internalType": "bool",
          "name": "isActive",
          "type": "bool"
        }
      ],
      "name": "SaleActivation",
      "type": "event"
    },
    {
      "anonymous": false,
      "inputs": [
        {
          "indexed": true,
          "internalType": "address",
          "name": "from",
          "type": "address"
        },
        {
          "indexed": true,
          "internalType": "address",
          "name": "to",
          "type": "address"
        },
        {
          "indexed": true,
          "internalType": "uint256",
          "name": "tokenId",
          "type": "uint256"
        }
      ],
      "name": "Transfer",
      "type": "event"
    },
    {
      "inputs": [],
      "name": "allowListMaxMint",
      "outputs": [
        {
          "internalType": "uint256",
          "name": "",
          "type": "uint256"
        }
      ],
      "stateMutability": "view",
      "type": "function"
    },
    {
      "inputs": [
        {
          "internalType": "address",
          "name": "to",
          "type": "address"
        },
        {
          "internalType": "uint256",
          "name": "tokenId",
          "type": "uint256"
        }
      ],
      "name": "approve",
      "outputs": [],
      "stateMutability": "nonpayable",
      "type": "function"
    },
    {
      "inputs": [
        {
          "internalType": "address",
          "name": "owner",
          "type": "address"
        }
      ],
      "name": "balanceOf",
      "outputs": [
        {
          "internalType": "uint256",
          "name": "",
          "type": "uint256"
        }
      ],
      "stateMutability": "view",
      "type": "function"
    },
    {
      "inputs": [],
      "name": "finalId",
      "outputs": [
        {
          "internalType": "uint32",
          "name": "",
          "type": "uint32"
        }
      ],
      "stateMutability": "view",
      "type": "function"
    },
    {
      "inputs": [
        {
          "internalType": "uint256",
          "name": "tokenId",
          "type": "uint256"
        }
      ],
      "name": "getApproved",
      "outputs": [
        {
          "internalType": "address",
          "name": "",
          "type": "address"
        }
      ],
      "stateMutability": "view",
      "type": "function"
    },
    {
      "inputs": [],
      "name": "isActive",
      "outputs": [
        {
          "internalType": "bool",
          "name": "",
          "type": "bool"
        }
      ],
      "stateMutability": "view",
      "type": "function"
    },
    {
      "inputs": [
        {
          "internalType": "address",
          "name": "owner",
          "type": "address"
        },
        {
          "internalType": "address",
          "name": "operator",
          "type": "address"
        }
      ],
      "name": "isApprovedForAll",
      "outputs": [
        {
          "internalType": "bool",
          "name": "",
          "type": "bool"
        }
      ],
      "stateMutability": "view",
      "type": "function"
    },
    {
      "inputs": [],
      "name": "isClosedMintForever",
      "outputs": [
        {
          "internalType": "bool",
          "name": "",
          "type": "bool"
        }
      ],
      "stateMutability": "view",
      "type": "function"
    },
    {
      "inputs": [],
      "name": "isRaffleActive",
      "outputs": [
        {
          "internalType": "bool",
          "name": "",
          "type": "bool"
        }
      ],
      "stateMutability": "view",
      "type": "function"
    },
    {
      "inputs": [],
      "name": "maximumAllowedTokensPerPurchase",
      "outputs": [
        {
          "internalType": "uint256",
          "name": "",
          "type": "uint256"
        }
      ],
      "stateMutability": "view",
      "type": "function"
    },
    {
      "inputs": [],
      "name": "maximumAllowedTokensPerWallet",
      "outputs": [
        {
          "internalType": "uint256",
          "name": "",
          "type": "uint256"
        }
      ],
      "stateMutability": "view",
      "type": "function"
    },
    {
      "inputs": [],
      "name": "maximumMintSupply",
      "outputs": [
        {
          "internalType": "uint256",
          "name": "",
          "type": "uint256"
        }
      ],
      "stateMutability": "view",
      "type": "function"
    },
    {
      "inputs": [],
      "name": "mintPrice",
      "outputs": [
        {
          "internalType": "uint256",
          "name": "",
          "type": "uint256"
        }
      ],
      "stateMutability": "view",
      "type": "function"
    },
    {
      "inputs": [],
      "name": "name",
      "outputs": [
        {
          "internalType": "string",
          "name": "",
          "type": "string"
        }
      ],
      "stateMutability": "view",
      "type": "function"
    },
    {
      "inputs": [],
      "name": "nextId",
      "outputs": [
        {
          "internalType": "uint32",
          "name": "",
          "type": "uint32"
        }
      ],
      "stateMutability": "view",
      "type": "function"
    },
    {
      "inputs": [],
      "name": "owner",
      "outputs": [
        {
          "internalType": "address",
          "name": "",
          "type": "address"
        }
      ],
      "stateMutability": "view",
      "type": "function"
    },
    {
      "inputs": [
        {
          "internalType": "uint256",
          "name": "tokenId",
          "type": "uint256"
        }
      ],
      "name": "ownerOf",
      "outputs": [
        {
          "internalType": "address",
          "name": "",
          "type": "address"
        }
      ],
      "stateMutability": "view",
      "type": "function"
    },
    {
      "inputs": [],
      "name": "renounceOwnership",
      "outputs": [],
      "stateMutability": "nonpayable",
      "type": "function"
    },
    {
      "inputs": [],
      "name": "root",
      "outputs": [
        {
          "internalType": "bytes32",
          "name": "",
          "type": "bytes32"
        }
      ],
      "stateMutability": "view",
      "type": "function"
    },
    {
      "inputs": [
        {
          "internalType": "address",
          "name": "from",
          "type": "address"
        },
        {
          "internalType": "address",
          "name": "to",
          "type": "address"
        },
        {
          "internalType": "uint256",
          "name": "tokenId",
          "type": "uint256"
        }
      ],
      "name": "safeTransferFrom",
      "outputs": [],
      "stateMutability": "nonpayable",
      "type": "function"
    },
    {
      "inputs": [
        {
          "internalType": "address",
          "name": "from",
          "type": "address"
        },
        {
          "internalType": "address",
          "name": "to",
          "type": "address"
        },
        {
          "internalType": "uint256",
          "name": "tokenId",
          "type": "uint256"
        },
        {
          "internalType": "bytes",
          "name": "_data",
          "type": "bytes"
        }
      ],
      "name": "safeTransferFrom",
      "outputs": [],
      "stateMutability": "nonpayable",
      "type": "function"
    },
    {
      "inputs": [
        {
          "internalType": "address",
          "name": "operator",
          "type": "address"
        },
        {
          "internalType": "bool",
          "name": "approved",
          "type": "bool"
        }
      ],
      "name": "setApprovalForAll",
      "outputs": [],
      "stateMutability": "nonpayable",
      "type": "function"
    },
    {
      "inputs": [
        {
          "internalType": "bytes4",
          "name": "interfaceId",
          "type": "bytes4"
        }
      ],
      "name": "supportsInterface",
      "outputs": [
        {
          "internalType": "bool",
          "name": "",
          "type": "bool"
        }
      ],
      "stateMutability": "view",
      "type": "function"
    },
    {
      "inputs": [],
      "name": "symbol",
      "outputs": [
        {
          "internalType": "string",
          "name": "",
          "type": "string"
        }
      ],
      "stateMutability": "view",
      "type": "function"
    },
    {
      "inputs": [
        {
          "internalType": "uint256",
          "name": "index",
          "type": "uint256"
        }
      ],
      "name": "tokenByIndex",
      "outputs": [
        {
          "internalType": "uint256",
          "name": "",
          "type": "uint256"
        }
      ],
      "stateMutability": "view",
      "type": "function"
    },
    {
      "inputs": [
        {
          "internalType": "address",
          "name": "owner",
          "type": "address"
        },
        {
          "internalType": "uint256",
          "name": "index",
          "type": "uint256"
        }
      ],
      "name": "tokenOfOwnerByIndex",
      "outputs": [
        {
          "internalType": "uint256",
          "name": "",
          "type": "uint256"
        }
      ],
      "stateMutability": "view",
      "type": "function"
    },
    {
      "inputs": [
        {
          "internalType": "uint256",
          "name": "tokenId",
          "type": "uint256"
        }
      ],
      "name": "tokenURI",
      "outputs": [
        {
          "internalType": "string",
          "name": "",
          "type": "string"
        }
      ],
      "stateMutability": "view",
      "type": "function"
    },
    {
      "inputs": [],
      "name": "totalSupply",
      "outputs": [
        {
          "internalType": "uint256",
          "name": "",
          "type": "uint256"
        }
      ],
      "stateMutability": "view",
      "type": "function"
    },
    {
      "inputs": [
        {
          "internalType": "address",
          "name": "from",
          "type": "address"
        },
        {
          "internalType": "address",
          "name": "to",
          "type": "address"
        },
        {
          "internalType": "uint256",
          "name": "tokenId",
          "type": "uint256"
        }
      ],
      "name": "transferFrom",
      "outputs": [],
      "stateMutability": "nonpayable",
      "type": "function"
    },
    {
      "inputs": [
        {
          "internalType": "address",
          "name": "newOwner",
          "type": "address"
        }
      ],
      "name": "transferOwnership",
      "outputs": [],
      "stateMutability": "nonpayable",
      "type": "function"
    },
    {
      "inputs": [
        {
          "internalType": "uint256",
          "name": "_count",
          "type": "uint256"
        }
      ],
      "name": "setMaximumAllowedTokens",
      "outputs": [],
      "stateMutability": "nonpayable",
      "type": "function"
    },
    {
      "inputs": [
        {
          "internalType": "uint256",
          "name": "_count",
          "type": "uint256"
        }
      ],
      "name": "setMaximumAllowedTokensPerWallet",
      "outputs": [],
      "stateMutability": "nonpayable",
      "type": "function"
    },
    {
      "inputs": [
        {
          "internalType": "bool",
          "name": "val",
          "type": "bool"
        }
      ],
      "name": "setActive",
      "outputs": [],
      "stateMutability": "nonpayable",
      "type": "function"
    },
    {
      "inputs": [
        {
          "internalType": "bool",
          "name": "_isRaffleActive",
          "type": "bool"
        }
      ],
      "name": "setRaffleActive",
      "outputs": [],
      "stateMutability": "nonpayable",
      "type": "function"
    },
    {
      "inputs": [
        {
          "internalType": "uint256",
          "name": "maxMintSupply",
          "type": "uint256"
        }
      ],
      "name": "setMaxMintSupply",
      "outputs": [],
      "stateMutability": "nonpayable",
      "type": "function"
    },
    {
      "inputs": [
        {
          "internalType": "uint256",
          "name": "maxMint",
          "type": "uint256"
        }
      ],
      "name": "setAllowListMaxMint",
      "outputs": [],
      "stateMutability": "nonpayable",
      "type": "function"
    },
    {
      "inputs": [
        {
          "internalType": "address[]",
          "name": "addresses",
          "type": "address[]"
        }
      ],
      "name": "addToAllowList",
      "outputs": [],
      "stateMutability": "nonpayable",
      "type": "function"
    },
    {
      "inputs": [
        {
          "internalType": "address",
          "name": "addr",
          "type": "address"
        }
      ],
      "name": "checkIfOnAllowList",
      "outputs": [
        {
          "internalType": "bool",
          "name": "",
          "type": "bool"
        }
      ],
      "stateMutability": "view",
      "type": "function"
    },
    {
      "inputs": [
        {
          "internalType": "address[]",
          "name": "addresses",
          "type": "address[]"
        }
      ],
      "name": "removeFromAllowList",
      "outputs": [],
      "stateMutability": "nonpayable",
      "type": "function"
    },
    {
      "inputs": [
        {
          "internalType": "address",
          "name": "owner",
          "type": "address"
        }
      ],
      "name": "allowListClaimedBy",
      "outputs": [
        {
          "internalType": "uint256",
          "name": "",
          "type": "uint256"
        }
      ],
      "stateMutability": "view",
      "type": "function"
    },
    {
      "inputs": [
        {
          "internalType": "uint256",
          "name": "val",
          "type": "uint256"
        }
      ],
      "name": "setReserveAtATime",
      "outputs": [],
      "stateMutability": "nonpayable",
      "type": "function"
    },
    {
      "inputs": [
        {
          "internalType": "uint256",
          "name": "val",
          "type": "uint256"
        }
      ],
      "name": "setMaxReserve",
      "outputs": [],
      "stateMutability": "nonpayable",
      "type": "function"
    },
    {
      "inputs": [
        {
          "internalType": "uint256",
          "name": "_price",
          "type": "uint256"
        }
      ],
      "name": "setPrice",
      "outputs": [],
      "stateMutability": "nonpayable",
      "type": "function"
    },
    {
      "inputs": [
        {
          "internalType": "string",
          "name": "baseURI",
          "type": "string"
        }
      ],
      "name": "setBaseURI",
      "outputs": [],
      "stateMutability": "nonpayable",
      "type": "function"
    },
    {
      "inputs": [
        {
          "internalType": "bytes32",
          "name": "_root",
          "type": "bytes32"
        }
      ],
      "name": "setRoot",
      "outputs": [],
      "stateMutability": "nonpayable",
      "type": "function"
    },
    {
      "inputs": [],
      "name": "getMaximumAllowedTokens",
      "outputs": [
        {
          "internalType": "uint256",
          "name": "",
          "type": "uint256"
        }
      ],
      "stateMutability": "view",
      "type": "function"
    },
    {
      "inputs": [],
      "name": "getPrice",
      "outputs": [
        {
          "internalType": "uint256",
          "name": "",
          "type": "uint256"
        }
      ],
      "stateMutability": "view",
      "type": "function"
    },
    {
      "inputs": [],
      "name": "getRoot",
      "outputs": [
        {
          "internalType": "bytes32",
          "name": "",
          "type": "bytes32"
        }
      ],
      "stateMutability": "view",
      "type": "function"
    },
    {
      "inputs": [],
      "name": "getIsClosedMintForever",
      "outputs": [
        {
          "internalType": "bool",
          "name": "",
          "type": "bool"
        }
      ],
      "stateMutability": "view",
      "type": "function"
    },
    {
      "inputs": [],
      "name": "setIsClosedMintForever",
      "outputs": [],
      "stateMutability": "nonpayable",
      "type": "function"
    },
    {
      "inputs": [],
      "name": "getReserveAtATime",
      "outputs": [
        {
          "internalType": "uint256",
          "name": "",
          "type": "uint256"
        }
      ],
      "stateMutability": "view",
      "type": "function"
    },
    {
      "inputs": [],
      "name": "getTotalSupply",
      "outputs": [
        {
          "internalType": "uint256",
          "name": "",
          "type": "uint256"
        }
      ],
      "stateMutability": "view",
      "type": "function"
    },
    {
      "inputs": [],
      "name": "getContractOwner",
      "outputs": [
        {
          "internalType": "address",
          "name": "",
          "type": "address"
        }
      ],
      "stateMutability": "view",
      "type": "function"
    },
    {
      "inputs": [],
      "name": "reserveNft",
      "outputs": [],
      "stateMutability": "nonpayable",
      "type": "function"
    },
    {
      "inputs": [
        {
          "internalType": "address",
          "name": "_to",
          "type": "address"
        },
        {
          "internalType": "uint256",
          "name": "_count",
          "type": "uint256"
        }
      ],
      "name": "mint",
      "outputs": [],
      "stateMutability": "payable",
      "type": "function"
    },
    {
      "inputs": [
        {
          "internalType": "address",
          "name": "_owner",
          "type": "address"
        }
      ],
      "name": "walletOfOwner",
      "outputs": [
        {
          "internalType": "uint256[]",
          "name": "",
          "type": "uint256[]"
        }
      ],
      "stateMutability": "view",
      "type": "function"
    },
    {
      "inputs": [],
      "name": "withdraw",
      "outputs": [],
      "stateMutability": "nonpayable",
      "type": "function"
    },
    {
      "inputs": [
        {
          "internalType": "uint256",
          "name": "_count",
          "type": "uint256"
        },
        {
          "internalType": "bytes32[]",
          "name": "_proof",
          "type": "bytes32[]"
        }
      ],
      "name": "raffleMint",
      "outputs": [],
      "stateMutability": "payable",
      "type": "function"
    }
  ],
  "bytecode": "0x6080604052600a805463ffffffff60a01b1916600160a01b17905567016345785d8a0000600c556032600d556000600e5561012c600f556011805462ffffff19169055612710601255601460138190558080556015553480156200006257600080fd5b50604051620038293803806200382983398101604081905262000085916200025e565b604080518082018252600e81526d149859999b1950dbdb9d1c9858dd60921b60208083019182528351808501909452600384526252534360e81b908401528151919291620000d691600091620001b8565b508051620000ec906001906020840190620001b8565b50505062000109620001036200011b60201b60201c565b6200011f565b620001148162000171565b5062000387565b3390565b600a80546001600160a01b038381166001600160a01b0319831681179093556040519116919082907f8be0079c531659141344cd1fd0a4f28419497f9722a3daafe3b4186f6b6457e090600090a35050565b336200017c620001a9565b6001600160a01b0316146200019057600080fd5b8051620001a5906010906020840190620001b8565b5050565b600a546001600160a01b031690565b828054620001c69062000334565b90600052602060002090601f016020900481019282620001ea576000855562000235565b82601f106200020557805160ff191683800117855562000235565b8280016001018555821562000235579182015b828111156200023557825182559160200191906001019062000218565b506200024392915062000247565b5090565b5b8082111562000243576000815560010162000248565b6000602080838503121562000271578182fd5b82516001600160401b038082111562000288578384fd5b818501915085601f8301126200029c578384fd5b815181811115620002b157620002b162000371565b604051601f8201601f19908116603f01168101908382118183101715620002dc57620002dc62000371565b816040528281528886848701011115620002f4578687fd5b8693505b82841015620003175784840186015181850187015292850192620002f8565b828411156200032857868684830101525b98975050505050505050565b6002810460018216806200034957607f821691505b602082108114156200036b57634e487b7160e01b600052602260045260246000fd5b50919050565b634e487b7160e01b600052604160045260246000fd5b61349280620003976000396000f3fe6080604052600436106103805760003560e01c80637389fbb7116101d1578063acec338a11610102578063dab5f340116100a0578063ebf0c7171161006f578063ebf0c7171461097c578063f132dc2914610991578063f2fde38b146109a6578063f6c9d9e3146109c657610380565b8063dab5f34014610907578063e7b62d9614610927578063e985e9c51461093c578063ea6eb8361461095c57610380565b8063c3441646116100dc578063c3441646146108a8578063c4e41b22146108bd578063c87b56dd146108d2578063cadf8818146108f257610380565b8063acec338a14610853578063ad06d75814610873578063b88d4fde1461088857610380565b806391b7f5ed1161016f57806398d5fdca1161014957806398d5fdca146107e95780639a3bf728146107fe578063a22cb46514610813578063a51312c81461083357610380565b806391b7f5ed1461079f578063932ecebc146107bf57806395d89b41146107d457610380565b80637d26f470116101ab5780637d26f4701461074b5780637f44ab2f146107605780638a18e5f2146107755780638da5cb5b1461078a57610380565b80637389fbb7146106f85780637890b2c9146107185780637a6685f11461072b57610380565b8063438b6300116102b65780635ca1e1651161025457806370a082311161022357806370a082311461068e578063715018a6146106ae57806371e3500c146106c35780637263cfe2146106d857610380565b80635ca1e1651461062257806361b8ce8c146106375780636352211e146106595780636817c76c1461067957610380565b80634dfea627116102905780634dfea627146105a25780634f6ccce7146105c257806355f804b3146105e257806356a87caa1461060257610380565b8063438b63001461054b578063442890d5146105785780634d0550de1461058d57610380565b806323b872dd116103235780632f745c59116102fd5780632f745c59146104e35780633ccfd60b1461050357806340c10f191461051857806342842e0e1461052b57610380565b806323b872dd146104835780632c1205f4146104a35780632f57bcfe146104c357610380565b8063081812fc1161035f578063081812fc1461040a578063095ea7b31461043757806318160ddd1461045957806322f3e2d41461046e57610380565b806208ffdd1461038557806301ffc9a7146103bb57806306fdde03146103e8575b600080fd5b34801561039157600080fd5b506103a56103a0366004612636565b6109e6565b6040516103b29190612a72565b60405180910390f35b3480156103c757600080fd5b506103db6103d6366004612829565b610a37565b6040516103b29190612a67565b3480156103f457600080fd5b506103fd610a62565b6040516103b29190612a7b565b34801561041657600080fd5b5061042a610425366004612811565b610af4565b6040516103b291906129d2565b34801561044357600080fd5b5061045761045236600461275f565b610b37565b005b34801561046557600080fd5b506103a5610bcf565b34801561047a57600080fd5b506103db610bd5565b34801561048f57600080fd5b5061045761049e366004612682565b610bde565b3480156104af57600080fd5b506103db6104be366004612636565b610c16565b3480156104cf57600080fd5b506104576104de3660046127f7565b610c34565b3480156104ef57600080fd5b506103a56104fe36600461275f565b610c6c565b34801561050f57600080fd5b50610457610cbe565b61045761052636600461275f565b610d1f565b34801561053757600080fd5b50610457610546366004612682565b610f21565b34801561055757600080fd5b5061056b610566366004612636565b610f3c565b6040516103b29190612a23565b34801561058457600080fd5b5061042a610ffa565b34801561059957600080fd5b506103a5611009565b3480156105ae57600080fd5b506104576105bd366004612811565b61100f565b3480156105ce57600080fd5b506103a56105dd366004612811565b611030565b3480156105ee57600080fd5b506104576105fd366004612861565b61108b565b34801561060e57600080fd5b5061045761061d366004612811565b6110ba565b34801561062e57600080fd5b506103a56110db565b34801561064357600080fd5b5061064c6110e1565b6040516103b291906132ca565b34801561066557600080fd5b5061042a610674366004612811565b6110f4565b34801561068557600080fd5b506103a5611129565b34801561069a57600080fd5b506103a56106a9366004612636565b61112f565b3480156106ba57600080fd5b50610457611173565b3480156106cf57600080fd5b506104576111be565b3480156106e457600080fd5b506104576106f3366004612788565b61128f565b34801561070457600080fd5b50610457610713366004612811565b61144d565b6104576107263660046128a7565b61146e565b34801561073757600080fd5b50610457610746366004612811565b611663565b34801561075757600080fd5b506103db611684565b34801561076c57600080fd5b506103a5611692565b34801561078157600080fd5b5061064c611698565b34801561079657600080fd5b5061042a6116ab565b3480156107ab57600080fd5b506104576107ba366004612811565b6116ba565b3480156107cb57600080fd5b506104576116db565b3480156107e057600080fd5b506103fd611708565b3480156107f557600080fd5b506103a5611717565b34801561080a57600080fd5b506103a561171d565b34801561081f57600080fd5b5061045761082e366004612736565b611723565b34801561083f57600080fd5b5061045761084e366004612788565b611735565b34801561085f57600080fd5b5061045761086e3660046127f7565b61182f565b34801561087f57600080fd5b506103a5611894565b34801561089457600080fd5b506104576108a33660046126bd565b6118b9565b3480156108b457600080fd5b506103db6118f2565b3480156108c957600080fd5b506103a5611901565b3480156108de57600080fd5b506103fd6108ed366004612811565b61190b565b3480156108fe57600080fd5b506103a561198e565b34801561091357600080fd5b50610457610922366004612811565b611994565b34801561093357600080fd5b506103a56119b5565b34801561094857600080fd5b506103db610957366004612650565b6119bb565b34801561096857600080fd5b50610457610977366004612811565b6119e9565b34801561098857600080fd5b506103a5611a0a565b34801561099d57600080fd5b506103db611a10565b3480156109b257600080fd5b506104576109c1366004612636565b611a1e565b3480156109d257600080fd5b506104576109e1366004612811565b611a8f565b60006001600160a01b038216610a175760405162461bcd60e51b8152600401610a0e90612f8c565b60405180910390fd5b506001600160a01b0381166000908152601760205260409020545b919050565b60006001600160e01b0319821663780e9d6360e01b1480610a5c5750610a5c82611ab0565b92915050565b606060008054610a719061339a565b80601f0160208091040260200160405190810160405280929190818152602001828054610a9d9061339a565b8015610aea5780601f10610abf57610100808354040283529160200191610aea565b820191906000526020600020905b815481529060010190602001808311610acd57829003601f168201915b5050505050905090565b6000610aff82611af0565b610b1b5760405162461bcd60e51b8152600401610a0e90612ed4565b506000908152600460205260409020546001600160a01b031690565b6000610b42826110f4565b9050806001600160a01b0316836001600160a01b03161415610b765760405162461bcd60e51b8152600401610a0e90613049565b806001600160a01b0316610b88611b0d565b6001600160a01b03161480610ba45750610ba481610957611b0d565b610bc05760405162461bcd60e51b8152600401610a0e90612daf565b610bca8383611b11565b505050565b60085490565b60115460ff1681565b610bef610be9611b0d565b82611b7f565b610c0b5760405162461bcd60e51b8152600401610a0e906130e8565b610bca838383611c04565b6001600160a01b031660009081526016602052604090205460ff1690565b33610c3d6116ab565b6001600160a01b031614610c5057600080fd5b60118054911515620100000262ff000019909216919091179055565b6000610c778361112f565b8210610c955760405162461bcd60e51b8152600401610a0e90612afc565b506001600160a01b03919091166000908152600660209081526040808320938352929052205490565b33610cc76116ab565b6001600160a01b031614610cda57600080fd5b47610ce36116ab565b6001600160a01b03166108fc829081150290604051600060405180830381858888f19350505050158015610d1b573d6000803e3d6000fd5b5050565b601254610d2a610bcf565b1115610d485760405162461bcd60e51b8152600401610a0e90612cbf565b610d506116ab565b6001600160a01b0316336001600160a01b031614610d8a5760115460ff16610d8a5760405162461bcd60e51b8152600401610a0e90612ac5565b610d926116ab565b6001600160a01b0316826001600160a01b031614610ddf5760145481610db78461112f565b610dc1919061330c565b1115610ddf5760405162461bcd60e51b8152600401610a0e90612c88565b60125481610deb610bcf565b610df5919061330c565b1115610e135760405162461bcd60e51b8152600401610a0e9061308a565b601254610e1e610bcf565b1115610e3c5760405162461bcd60e51b8152600401610a0e906131ac565b601354811115610e5e5760405162461bcd60e51b8152600401610a0e90613012565b601154610100900460ff1615610e865760405162461bcd60e51b8152600401610a0e90612c5b565b80600c54610e949190613338565b341015610eb35760405162461bcd60e51b8152600401610a0e906131d9565b60005b81811015610bca577f55f284809f4c5b7377fbe62f2feeb9686e3834dcae5f3ca955140fe6547cd355610ee7610bcf565b84604051610ef69291906132b3565b60405180910390a1610f0f83610f0a610bcf565b611d37565b80610f19816133d5565b915050610eb6565b610bca838383604051806020016040528060008152506118b9565b60606000610f498361112f565b905060008167ffffffffffffffff811115610f7457634e487b7160e01b600052604160045260246000fd5b604051908082528060200260200182016040528015610f9d578160200160208202803683370190505b50905060005b82811015610ff257610fb58582610c6c565b828281518110610fd557634e487b7160e01b600052603260045260246000fd5b602090810291909101015280610fea816133d5565b915050610fa3565b509392505050565b60006110046116ab565b905090565b60125481565b336110186116ab565b6001600160a01b03161461102b57600080fd5b601355565b600061103a610bcf565b82106110585760405162461bcd60e51b8152600401610a0e90613160565b6008828154811061107957634e487b7160e01b600052603260045260246000fd5b90600052602060002001549050919050565b336110946116ab565b6001600160a01b0316146110a757600080fd5b8051610d1b90601090602084019061251e565b336110c36116ab565b6001600160a01b0316146110d657600080fd5b600f55565b600b5490565b600a54600160a01b900463ffffffff1681565b6000818152600260205260408120546001600160a01b031680610a5c5760405162461bcd60e51b8152600401610a0e90612e56565b600c5481565b60006001600160a01b0382166111575760405162461bcd60e51b8152600401610a0e90612e0c565b506001600160a01b031660009081526003602052604090205490565b61117b611b0d565b6001600160a01b031661118c6116ab565b6001600160a01b0316146111b25760405162461bcd60e51b8152600401610a0e90612f57565b6111bc6000611d51565b565b336111c76116ab565b6001600160a01b0316146111da57600080fd5b600f54600e5411156111fe5760405162461bcd60e51b8152600401610a0e90612a8e565b6000611208610bcf565b905060005b600d54811015610d1b577f55f284809f4c5b7377fbe62f2feeb9686e3834dcae5f3ca955140fe6547cd355611242828461330c565b336040516112519291906132b3565b60405180910390a161126733610f0a838561330c565b600e8054906000611277836133d5565b91905055508080611287906133d5565b91505061120d565b336112986116ab565b6001600160a01b0316146112ab57600080fd5b60005b81811015610bca5760008383838181106112d857634e487b7160e01b600052603260045260246000fd5b90506020020160208101906112ed9190612636565b6001600160a01b031614156113145760405162461bcd60e51b8152600401610a0e90612f20565b60016016600085858581811061133a57634e487b7160e01b600052603260045260246000fd5b905060200201602081019061134f9190612636565b6001600160a01b0316815260208101919091526040016000908120805460ff19169215159290921790915560178185858581811061139d57634e487b7160e01b600052603260045260246000fd5b90506020020160208101906113b29190612636565b6001600160a01b03166001600160a01b0316815260200190815260200160002054116113df57600061143a565b6017600084848481811061140357634e487b7160e01b600052603260045260246000fd5b90506020020160208101906114189190612636565b6001600160a01b03166001600160a01b03168152602001908152602001600020545b5080611445816133d5565b9150506112ae565b336114566116ab565b6001600160a01b03161461146957600080fd5b601255565b601254611479610bcf565b11156114975760405162461bcd60e51b8152600401610a0e90612cbf565b6000336040516020016114aa9190612986565b604051602081830303815290604052805190602001209050601160029054906101000a900460ff166114ee5760405162461bcd60e51b8152600401610a0e906130ba565b600b546114fd90839083611da3565b6115195760405162461bcd60e51b8152600401610a0e90613139565b601254611524610bcf565b106115415760405162461bcd60e51b8152600401610a0e90613247565b6015548311156115635760405162461bcd60e51b8152600401610a0e9061327e565b6015543360009081526017602052604090205461158190859061330c565b111561159f5760405162461bcd60e51b8152600401610a0e90613210565b82600c546115ad9190613338565b3410156115cc5760405162461bcd60e51b8152600401610a0e906131d9565b601154610100900460ff16156115f45760405162461bcd60e51b8152600401610a0e90612c5b565b60005b8381101561165d577f55f284809f4c5b7377fbe62f2feeb9686e3834dcae5f3ca955140fe6547cd355611628610bcf565b336040516116379291906132b3565b60405180910390a161164b33610f0a610bcf565b80611655816133d5565b9150506115f7565b50505050565b3361166c6116ab565b6001600160a01b03161461167f57600080fd5b601555565b601154610100900460ff1681565b60155481565b600a54600160c01b900463ffffffff1681565b600a546001600160a01b031690565b336116c36116ab565b6001600160a01b0316146116d657600080fd5b600c55565b336116e46116ab565b6001600160a01b0316146116f757600080fd5b6011805461ff001916610100179055565b606060018054610a719061339a565b600c5490565b60135481565b610d1b61172e611b0d565b8383611db9565b3361173e6116ab565b6001600160a01b03161461175157600080fd5b60005b81811015610bca57600083838381811061177e57634e487b7160e01b600052603260045260246000fd5b90506020020160208101906117939190612636565b6001600160a01b031614156117ba5760405162461bcd60e51b8152600401610a0e90612f20565b6000601660008585858181106117e057634e487b7160e01b600052603260045260246000fd5b90506020020160208101906117f59190612636565b6001600160a01b031681526020810191909152604001600020805460ff191691151591909117905580611827816133d5565b915050611754565b336118386116ab565b6001600160a01b03161461184b57600080fd5b6011805460ff19168215151790556040517f58655b75d3df612fe99ead00dbf0812d415d35078fe06217a94c0818bb13967f90611889908390612a67565b60405180910390a150565b60003361189f6116ab565b6001600160a01b0316146118b257600080fd5b5060135490565b6118ca6118c4611b0d565b83611b7f565b6118e65760405162461bcd60e51b8152600401610a0e906130e8565b61165d84848484611e5c565b60115462010000900460ff1681565b6000611004610bcf565b606061191682611af0565b6119325760405162461bcd60e51b8152600401610a0e90612fc3565b600061193c611e8f565b9050600081511161195c5760405180602001604052806000815250611987565b8061196684611e9e565b6040516020016119779291906129a3565b6040516020818303038152906040525b9392505050565b60145481565b3361199d6116ab565b6001600160a01b0316146119b057600080fd5b600b55565b600d5490565b6001600160a01b03918216600090815260056020908152604080832093909416825291909152205460ff1690565b336119f26116ab565b6001600160a01b031614611a0557600080fd5b601455565b600b5481565b601154610100900460ff1690565b611a26611b0d565b6001600160a01b0316611a376116ab565b6001600160a01b031614611a5d5760405162461bcd60e51b8152600401610a0e90612f57565b6001600160a01b038116611a835760405162461bcd60e51b8152600401610a0e90612b99565b611a8c81611d51565b50565b33611a986116ab565b6001600160a01b031614611aab57600080fd5b600d55565b60006001600160e01b031982166380ac58cd60e01b1480611ae157506001600160e01b03198216635b5e139f60e01b145b80610a5c5750610a5c82611fb9565b6000908152600260205260409020546001600160a01b0316151590565b3390565b600081815260046020526040902080546001600160a01b0319166001600160a01b0384169081179091558190611b46826110f4565b6001600160a01b03167f8c5be1e5ebec7d5bd14f71427d1e84f3dd0314c0f7b2291e5b200ac8c7c3b92560405160405180910390a45050565b6000611b8a82611af0565b611ba65760405162461bcd60e51b8152600401610a0e90612d63565b6000611bb1836110f4565b9050806001600160a01b0316846001600160a01b03161480611bec5750836001600160a01b0316611be184610af4565b6001600160a01b0316145b80611bfc5750611bfc81856119bb565b949350505050565b826001600160a01b0316611c17826110f4565b6001600160a01b031614611c3d5760405162461bcd60e51b8152600401610a0e90612bdf565b6001600160a01b038216611c635760405162461bcd60e51b8152600401610a0e90612ce8565b611c6e838383611fd2565b611c79600082611b11565b6001600160a01b0383166000908152600360205260408120805460019290611ca2908490613357565b90915550506001600160a01b0382166000908152600360205260408120805460019290611cd090849061330c565b909155505060008181526002602052604080822080546001600160a01b0319166001600160a01b0386811691821790925591518493918716917fddf252ad1be2c89b69c2b068fc378daa952ba7f163c4a11628f55a4df523b3ef91a4610bca838383610bca565b610d1b82826040518060200160405280600081525061205b565b600a80546001600160a01b038381166001600160a01b0319831681179093556040519116919082907f8be0079c531659141344cd1fd0a4f28419497f9722a3daafe3b4186f6b6457e090600090a35050565b600082611db0858461208e565b14949350505050565b816001600160a01b0316836001600160a01b03161415611deb5760405162461bcd60e51b8152600401610a0e90612d2c565b6001600160a01b0383811660008181526005602090815260408083209487168084529490915290819020805460ff1916851515179055517f17307eab39ab6107e8899845ad3d59bd9653f200f220920489ca2b5937696c3190611e4f908590612a67565b60405180910390a3505050565b611e67848484611c04565b611e7384848484612100565b61165d5760405162461bcd60e51b8152600401610a0e90612b47565b606060108054610a719061339a565b606081611ec357506040805180820190915260018152600360fc1b6020820152610a32565b8160005b8115611eed5780611ed7816133d5565b9150611ee69050600a83613324565b9150611ec7565b60008167ffffffffffffffff811115611f1657634e487b7160e01b600052604160045260246000fd5b6040519080825280601f01601f191660200182016040528015611f40576020820181803683370190505b5090505b8415611bfc57611f55600183613357565b9150611f62600a866133f0565b611f6d90603061330c565b60f81b818381518110611f9057634e487b7160e01b600052603260045260246000fd5b60200101906001600160f81b031916908160001a905350611fb2600a86613324565b9450611f44565b6001600160e01b031981166301ffc9a760e01b14919050565b611fdd838383610bca565b6001600160a01b038316611ff957611ff48161221b565b61201c565b816001600160a01b0316836001600160a01b03161461201c5761201c838261225f565b6001600160a01b03821661203857612033816122fc565b610bca565b826001600160a01b0316826001600160a01b031614610bca57610bca82826123d5565b6120658383612419565b6120726000848484612100565b610bca5760405162461bcd60e51b8152600401610a0e90612b47565b600081815b8451811015610ff25760008582815181106120be57634e487b7160e01b600052603260045260246000fd5b602002602001015190508083116120e0576120d98382612500565b92506120ed565b6120ea8184612500565b92505b50806120f8816133d5565b915050612093565b6000612114846001600160a01b031661250f565b1561221057836001600160a01b031663150b7a02612130611b0d565b8786866040518563ffffffff1660e01b815260040161215294939291906129e6565b602060405180830381600087803b15801561216c57600080fd5b505af192505050801561219c575060408051601f3d908101601f1916820190925261219991810190612845565b60015b6121f6573d8080156121ca576040519150601f19603f3d011682016040523d82523d6000602084013e6121cf565b606091505b5080516121ee5760405162461bcd60e51b8152600401610a0e90612b47565b805181602001fd5b6001600160e01b031916630a85bd0160e11b149050611bfc565b506001949350505050565b600880546000838152600960205260408120829055600182018355919091527ff3f7a9fe364faab93b216da50a3214154f22a0a2b415b23a84c8169e8b636ee30155565b6000600161226c8461112f565b6122769190613357565b6000838152600760205260409020549091508082146122c9576001600160a01b03841660009081526006602090815260408083208584528252808320548484528184208190558352600790915290208190555b5060009182526007602090815260408084208490556001600160a01b039094168352600681528383209183525290812055565b60085460009061230e90600190613357565b6000838152600960205260408120546008805493945090928490811061234457634e487b7160e01b600052603260045260246000fd5b90600052602060002001549050806008838154811061237357634e487b7160e01b600052603260045260246000fd5b60009182526020808320909101929092558281526009909152604080822084905585825281205560088054806123b957634e487b7160e01b600052603160045260246000fd5b6001900381819060005260206000200160009055905550505050565b60006123e08361112f565b6001600160a01b039093166000908152600660209081526040808320868452825280832085905593825260079052919091209190915550565b6001600160a01b03821661243f5760405162461bcd60e51b8152600401610a0e90612e9f565b61244881611af0565b156124655760405162461bcd60e51b8152600401610a0e90612c24565b61247160008383611fd2565b6001600160a01b038216600090815260036020526040812080546001929061249a90849061330c565b909155505060008181526002602052604080822080546001600160a01b0319166001600160a01b03861690811790915590518392907fddf252ad1be2c89b69c2b068fc378daa952ba7f163c4a11628f55a4df523b3ef908290a4610d1b60008383610bca565b60009182526020526040902090565b6001600160a01b03163b151590565b82805461252a9061339a565b90600052602060002090601f01602090048101928261254c5760008555612592565b82601f1061256557805160ff1916838001178555612592565b82800160010185558215612592579182015b82811115612592578251825591602001919060010190612577565b5061259e9291506125a2565b5090565b5b8082111561259e57600081556001016125a3565b600067ffffffffffffffff8311156125d1576125d1613430565b6125e4601f8401601f19166020016132db565b90508281528383830111156125f857600080fd5b828260208301376000602084830101529392505050565b80356001600160a01b0381168114610a3257600080fd5b80358015158114610a3257600080fd5b600060208284031215612647578081fd5b6119878261260f565b60008060408385031215612662578081fd5b61266b8361260f565b91506126796020840161260f565b90509250929050565b600080600060608486031215612696578081fd5b61269f8461260f565b92506126ad6020850161260f565b9150604084013590509250925092565b600080600080608085870312156126d2578081fd5b6126db8561260f565b93506126e96020860161260f565b925060408501359150606085013567ffffffffffffffff81111561270b578182fd5b8501601f8101871361271b578182fd5b61272a878235602084016125b7565b91505092959194509250565b60008060408385031215612748578182fd5b6127518361260f565b915061267960208401612626565b60008060408385031215612771578182fd5b61277a8361260f565b946020939093013593505050565b6000806020838503121561279a578182fd5b823567ffffffffffffffff808211156127b1578384fd5b818501915085601f8301126127c4578384fd5b8135818111156127d2578485fd5b86602080830285010111156127e5578485fd5b60209290920196919550909350505050565b600060208284031215612808578081fd5b61198782612626565b600060208284031215612822578081fd5b5035919050565b60006020828403121561283a578081fd5b813561198781613446565b600060208284031215612856578081fd5b815161198781613446565b600060208284031215612872578081fd5b813567ffffffffffffffff811115612888578182fd5b8201601f81018413612898578182fd5b611bfc848235602084016125b7565b600080604083850312156128b9578182fd5b8235915060208084013567ffffffffffffffff808211156128d8578384fd5b818601915086601f8301126128eb578384fd5b8135818111156128fd576128fd613430565b838102915061290d8483016132db565b8181528481019084860184860187018b1015612927578788fd5b8795505b8386101561294957803583526001959095019491860191860161292b565b508096505050505050509250929050565b6000815180845261297281602086016020860161336e565b601f01601f19169290920160200192915050565b60609190911b6bffffffffffffffffffffffff1916815260140190565b600083516129b581846020880161336e565b8351908301906129c981836020880161336e565b01949350505050565b6001600160a01b0391909116815260200190565b6001600160a01b0385811682528416602082015260408101839052608060608201819052600090612a199083018461295a565b9695505050505050565b6020808252825182820181905260009190848201906040850190845b81811015612a5b57835183529284019291840191600101612a3f565b50909695505050505050565b901515815260200190565b90815260200190565b600060208252611987602083018461295a565b6020808252601b908201527f4d61782052657365727665732074616b656e20616c7265616479210000000000604082015260600190565b6020808252601d908201527f53616c65206973206e6f74206163746976652063757272656e746c792e000000604082015260600190565b6020808252602b908201527f455243373231456e756d657261626c653a206f776e657220696e646578206f7560408201526a74206f6620626f756e647360a81b606082015260800190565b60208082526032908201527f4552433732313a207472616e7366657220746f206e6f6e20455243373231526560408201527131b2b4bb32b91034b6b83632b6b2b73a32b960711b606082015260800190565b60208082526026908201527f4f776e61626c653a206e6577206f776e657220697320746865207a65726f206160408201526564647265737360d01b606082015260800190565b60208082526025908201527f4552433732313a207472616e736665722066726f6d20696e636f72726563742060408201526437bbb732b960d91b606082015260800190565b6020808252601c908201527f4552433732313a20746f6b656e20616c7265616479206d696e74656400000000604082015260600190565b60208082526013908201527226b4b73a1021b637b9b2b2102337b932bb32b960691b604082015260600190565b60208082526018908201527f4d617820686f6c64696e672063617020726561636865642e0000000000000000604082015260600190565b6020808252600f908201526e29b0b632903430b99032b73232b21760891b604082015260600190565b60208082526024908201527f4552433732313a207472616e7366657220746f20746865207a65726f206164646040820152637265737360e01b606082015260800190565b60208082526019908201527f4552433732313a20617070726f766520746f2063616c6c657200000000000000604082015260600190565b6020808252602c908201527f4552433732313a206f70657261746f7220717565727920666f72206e6f6e657860408201526b34b9ba32b73a103a37b5b2b760a11b606082015260800190565b60208082526038908201527f4552433732313a20617070726f76652063616c6c6572206973206e6f74206f7760408201527f6e6572206e6f7220617070726f76656420666f7220616c6c0000000000000000606082015260800190565b6020808252602a908201527f4552433732313a2062616c616e636520717565727920666f7220746865207a65604082015269726f206164647265737360b01b606082015260800190565b60208082526029908201527f4552433732313a206f776e657220717565727920666f72206e6f6e657869737460408201526832b73a103a37b5b2b760b91b606082015260800190565b6020808252818101527f4552433732313a206d696e7420746f20746865207a65726f2061646472657373604082015260600190565b6020808252602c908201527f4552433732313a20617070726f76656420717565727920666f72206e6f6e657860408201526b34b9ba32b73a103a37b5b2b760a11b606082015260800190565b60208082526018908201527f43616e2774206164642061206e756c6c20616464726573730000000000000000604082015260600190565b6020808252818101527f4f776e61626c653a2063616c6c6572206973206e6f7420746865206f776e6572604082015260600190565b6020808252601e908201527f5a65726f2061646472657373206e6f74206f6e20416c6c6f77204c6973740000604082015260600190565b6020808252602f908201527f4552433732314d657461646174613a2055524920717565727920666f72206e6f60408201526e3732bc34b9ba32b73a103a37b5b2b760891b606082015260800190565b6020808252601e908201527f45786365656473206d6178696d756d20616c6c6f77656420746f6b656e730000604082015260600190565b60208082526021908201527f4552433732313a20617070726f76616c20746f2063757272656e74206f776e656040820152603960f91b606082015260800190565b6020808252601690820152752a37ba30b61039bab838363c9032bc31b2b2b232b21760511b604082015260600190565b602080825260149082015273526166666c65206973206e6f742061637469766560601b604082015260600190565b60208082526031908201527f4552433732313a207472616e736665722063616c6c6572206973206e6f74206f6040820152701ddb995c881b9bdc88185c1c1c9bdd9959607a1b606082015260800190565b6020808252600d908201526c34b73b30b634b210383937b7b360991b604082015260600190565b6020808252602c908201527f455243373231456e756d657261626c653a20676c6f62616c20696e646578206f60408201526b7574206f6620626f756e647360a01b606082015260800190565b6020808252601390820152722a37ba30b61039bab838363c9039b832b73a1760691b604082015260600190565b6020808252601b908201527f496e7375666669656e742045544820616d6f756e742073656e742e0000000000604082015260600190565b6020808252601c908201527f50757263686173652065786365656473206d617820616c6c6f77656400000000604082015260600190565b6020808252601b908201527f416c6c20746f6b656e732068617665206265656e206d696e7465640000000000604082015260600190565b6020808252818101527f43616e6e6f742070757263686173652074686973206d616e7920746f6b656e73604082015260600190565b9182526001600160a01b0316602082015260400190565b63ffffffff91909116815260200190565b604051601f8201601f1916810167ffffffffffffffff8111828210171561330457613304613430565b604052919050565b6000821982111561331f5761331f613404565b500190565b6000826133335761333361341a565b500490565b600081600019048311821515161561335257613352613404565b500290565b60008282101561336957613369613404565b500390565b60005b83811015613389578181015183820152602001613371565b8381111561165d5750506000910152565b6002810460018216806133ae57607f821691505b602082108114156133cf57634e487b7160e01b600052602260045260246000fd5b50919050565b60006000198214156133e9576133e9613404565b5060010190565b6000826133ff576133ff61341a565b500690565b634e487b7160e01b600052601160045260246000fd5b634e487b7160e01b600052601260045260246000fd5b634e487b7160e01b600052604160045260246000fd5b6001600160e01b031981168114611a8c57600080fdfea2646970667358221220b8d46a267e18fe16134598ee000781166740fa7ac50cbbdd1fa92f0295682aac64736f6c63430008010033",
  "immutableReferences": {},
  "source": "pragma solidity ^0.8.1;\n\nimport \"@openzeppelin/contracts/token/ERC721/extensions/ERC721Enumerable.sol\";\nimport \"@openzeppelin/contracts/access/Ownable.sol\";\nimport \"@openzeppelin/contracts/utils/cryptography/MerkleProof.sol\";\n\ncontract TestRaffle is ERC721Enumerable, Ownable {\n  using MerkleProof for bytes32[];\n\n  uint32 public nextId = 1;\n  uint32 public finalId;\n\n  bytes32 public root;\n\n  uint256 public mintPrice = 0.1 ether;\n\n  uint256 private reserveAtATime = 50;\n  uint256 private reservedCount = 0;\n  uint256 private maxReserveCount = 300;\n\n  string _baseTokenURI;\n\n  bool public isActive = false;\n  bool public isClosedMintForever = false;\n  bool public isRaffleActive = false;\n\n  uint256 public maximumMintSupply = 10000;\n  uint256 public maximumAllowedTokensPerPurchase = 20;\n  uint256 public maximumAllowedTokensPerWallet = 20;\n  uint256 public allowListMaxMint = 20;\n\n  mapping(address => bool) private _allowList;\n  mapping(address => uint256) private _allowListClaimed;\n\n  event AssetMinted(uint256 tokenId, address sender);\n  event SaleActivation(bool isActive);\n\n  constructor(string memory baseURI) ERC721(\"RaffleContract\", \"RSC\") {\n    setBaseURI(baseURI);\n  }\n\n  modifier saleIsOpen {\n    require(totalSupply() <= maximumMintSupply, \"Sale has ended.\");\n    _;\n  }\n\n  modifier onlyAuthorized() {\n    require(owner() == msg.sender);\n    _;\n  }\n\n  function setMaximumAllowedTokens(uint256 _count) public onlyAuthorized {\n    maximumAllowedTokensPerPurchase = _count;\n  }\n\n  function setMaximumAllowedTokensPerWallet(uint256 _count) public onlyAuthorized {\n    maximumAllowedTokensPerWallet = _count;\n  }\n\n  function setActive(bool val) public onlyAuthorized {\n    isActive = val;\n    emit SaleActivation(val);\n  }\n\n  function setRaffleActive(bool _isRaffleActive) public onlyAuthorized {\n    isRaffleActive = _isRaffleActive;\n  }\n\n  function setMaxMintSupply(uint256 maxMintSupply) external  onlyAuthorized {\n    maximumMintSupply = maxMintSupply;\n  }\n\n  function setAllowListMaxMint(uint256 maxMint) external  onlyAuthorized {\n    allowListMaxMint = maxMint;\n  }\n\n  function addToAllowList(address[] calldata addresses) external onlyAuthorized {\n    for (uint256 i = 0; i < addresses.length; i++) {\n      require(addresses[i] != address(0), \"Can't add a null address\");\n      _allowList[addresses[i]] = true;\n      _allowListClaimed[addresses[i]] > 0 ? _allowListClaimed[addresses[i]] : 0;\n    }\n  }\n\n  function checkIfOnAllowList(address addr) external view returns (bool) {\n    return _allowList[addr];\n  }\n\n  function removeFromAllowList(address[] calldata addresses) external onlyAuthorized {\n    for (uint256 i = 0; i < addresses.length; i++) {\n      require(addresses[i] != address(0), \"Can't add a null address\");\n      _allowList[addresses[i]] = false;\n    }\n  }\n\n  function allowListClaimedBy(address owner) external view returns (uint256){\n    require(owner != address(0), \"Zero address not on Allow List\");\n    return _allowListClaimed[owner];\n  }\n\n  function setReserveAtATime(uint256 val) public onlyAuthorized {\n    reserveAtATime = val;\n  }\n\n  function setMaxReserve(uint256 val) public onlyAuthorized {\n    maxReserveCount = val;\n  }\n\n  function setPrice(uint256 _price) public onlyAuthorized {\n    mintPrice = _price;\n  }\n\n  function setBaseURI(string memory baseURI) public onlyAuthorized {\n    _baseTokenURI = baseURI;\n  }\n\n  function setRoot(bytes32 _root) public onlyAuthorized {\n    root = _root;\n  }\n\n  function getMaximumAllowedTokens() public view onlyAuthorized returns (uint256) {\n    return maximumAllowedTokensPerPurchase;\n  }\n\n  function getPrice() external view returns (uint256) {\n    return mintPrice;\n  }\n\n  function getRoot() external view returns (bytes32) {\n    return root;\n  }\n\n  function getIsClosedMintForever() external view returns (bool) {\n    return isClosedMintForever;\n  }\n\n  function setIsClosedMintForever() external onlyAuthorized {\n    isClosedMintForever = true;\n  }\n\n  function getReserveAtATime() external view returns (uint256) {\n    return reserveAtATime;\n  }\n\n  function getTotalSupply() external view returns (uint256) {\n    return totalSupply();\n  }\n\n  function getContractOwner() public view returns (address) {\n    return owner();\n  }\n\n  function _baseURI() internal view virtual override returns (string memory) {\n    return _baseTokenURI;\n  }\n\n  function reserveNft() public onlyAuthorized {\n    require(reservedCount <= maxReserveCount, \"Max Reserves taken already!\");\n    uint256 supply = totalSupply();\n    uint256 i;\n\n    for (i = 0; i < reserveAtATime; i++) {\n      emit AssetMinted(supply + i, msg.sender);\n      _safeMint(msg.sender, supply + i);\n      reservedCount++;\n    }\n  }\n\n  function mint(address _to, uint256 _count) public payable saleIsOpen {\n    if (msg.sender != owner()) {\n      require(isActive, \"Sale is not active currently.\");\n    }\n\n    if(_to != owner()) {\n      require(balanceOf(_to) + _count <= maximumAllowedTokensPerWallet, \"Max holding cap reached.\");\n    }\n\n    require(totalSupply() + _count <= maximumMintSupply, \"Total supply exceeded.\");\n    require(totalSupply() <= maximumMintSupply, \"Total supply spent.\");\n    require(\n      _count <= maximumAllowedTokensPerPurchase,\n      \"Exceeds maximum allowed tokens\"\n    );\n    require(!isClosedMintForever, \"Mint Closed Forever\");\n\n    require(msg.value >= mintPrice * _count, \"Insuffient ETH amount sent.\");\n\n    for (uint256 i = 0; i < _count; i++) {\n      emit AssetMinted(totalSupply(), _to);\n      _safeMint(_to, totalSupply());\n    }\n  }\n\n  function walletOfOwner(address _owner) external view returns(uint256[] memory) {\n    uint tokenCount = balanceOf(_owner);\n    uint256[] memory tokensId = new uint256[](tokenCount);\n\n    for(uint i = 0; i < tokenCount; i++){\n      tokensId[i] = tokenOfOwnerByIndex(_owner, i);\n    }\n    return tokensId;\n  }\n\n  function withdraw() external onlyAuthorized {\n    uint balance = address(this).balance;\n    payable(owner()).transfer(balance);\n  }\n\n  function raffleMint(uint256 _count, bytes32[] memory _proof) public payable saleIsOpen {\n    bytes32 leaf = keccak256(abi.encodePacked(msg.sender));\n\n    require(isRaffleActive, \"Raffle is not active\");\n    require(_proof.verify(root, leaf), \"invalid proof\");\n\n    require(totalSupply() < maximumMintSupply, \"All tokens have been minted\");\n    require(_count <= allowListMaxMint, \"Cannot purchase this many tokens\");\n    require(_allowListClaimed[msg.sender] + _count <= allowListMaxMint, \"Purchase exceeds max allowed\");\n    require(msg.value >= mintPrice * _count, \"Insuffient ETH amount sent.\");\n    require(!isClosedMintForever, \"Mint Closed Forever\");\n\n    for (uint256 i = 0; i < _count; i++) {\n      emit AssetMinted(totalSupply(), msg.sender);\n      _safeMint(msg.sender, totalSupply());\n    }\n  }\n\n}",
  "sourcePath": "/Users/nftstack/Documents/GitHub/racing-social-club-local/contracts/TestRaffle.sol",
  "compiler": {
    "name": "solc",
    "version": "0.8.1+commit.df193b15.Emscripten.clang"
  },
  "schemaVersion": "3.4.6",
  "updatedAt": "2022-03-30T14:13:41.607Z",
  "devdoc": {
    "kind": "dev",
    "methods": {
      "approve(address,uint256)": {
        "details": "See {IERC721-approve}."
      },
      "balanceOf(address)": {
        "details": "See {IERC721-balanceOf}."
      },
      "getApproved(uint256)": {
        "details": "See {IERC721-getApproved}."
      },
      "isApprovedForAll(address,address)": {
        "details": "See {IERC721-isApprovedForAll}."
      },
      "name()": {
        "details": "See {IERC721Metadata-name}."
      },
      "owner()": {
        "details": "Returns the address of the current owner."
      },
      "ownerOf(uint256)": {
        "details": "See {IERC721-ownerOf}."
      },
      "renounceOwnership()": {
        "details": "Leaves the contract without owner. It will not be possible to call `onlyOwner` functions anymore. Can only be called by the current owner. NOTE: Renouncing ownership will leave the contract without an owner, thereby removing any functionality that is only available to the owner."
      },
      "safeTransferFrom(address,address,uint256)": {
        "details": "See {IERC721-safeTransferFrom}."
      },
      "safeTransferFrom(address,address,uint256,bytes)": {
        "details": "See {IERC721-safeTransferFrom}."
      },
      "setApprovalForAll(address,bool)": {
        "details": "See {IERC721-setApprovalForAll}."
      },
      "supportsInterface(bytes4)": {
        "details": "See {IERC165-supportsInterface}."
      },
      "symbol()": {
        "details": "See {IERC721Metadata-symbol}."
      },
      "tokenByIndex(uint256)": {
        "details": "See {IERC721Enumerable-tokenByIndex}."
      },
      "tokenOfOwnerByIndex(address,uint256)": {
        "details": "See {IERC721Enumerable-tokenOfOwnerByIndex}."
      },
      "tokenURI(uint256)": {
        "details": "See {IERC721Metadata-tokenURI}."
      },
      "totalSupply()": {
        "details": "See {IERC721Enumerable-totalSupply}."
      },
      "transferFrom(address,address,uint256)": {
        "details": "See {IERC721-transferFrom}."
      },
      "transferOwnership(address)": {
        "details": "Transfers ownership of the contract to a new account (`newOwner`). Can only be called by the current owner."
      }
    },
    "version": 1
  },
  "userdoc": {
    "kind": "user",
    "methods": {},
    "version": 1
  }
}